:100000000C9434000C9446000C9446000C9446006A
:100010000C9446000C9446000C9446000C94460048
:100020000C9446000C9446000C9446000C94460038
:100030000C9446000C9446000C9448000C94460026
:100040000C9446000C9446000C9446000C94460018
:100050000C9446000C9446000C9446000C94460008
:100060000C9446000C94460011241FBECFEFD8E03C
:10007000DEBFCDBF21E0A0E0B1E001C01D92A43001
:10008000B207E1F70E9474000C94CA000C940000BF
:100090001F920F920FB60F9211248F939F93AF93DD
:1000A000BF93CF93DF93CDB7DEB7809100019091DE
:1000B0000101A0910201B09103010196A11DB11DA2
:1000C0008093000190930101A0930201B09303017A
:1000D0000000DF91CF91BF91AF919F918F910F90D1
:1000E0000FBE0F901F901895CF93DF93CDB7DEB75B
:1000F00084E290E0FC01208184E290E02260FC0137
:1001000020838EE690E0FC0120818EE690E0226064
:10011000FC01208384E490E0FC01208184E490E0F1
:100120002360FC01208385E490E0FC01208185E4CC
:1001300090E02860FC01208387E490E02CE7FC013C
:100140002083789485E490E0FC01208185E490E0B0
:100150002560FC0120838091000190910101A09114
:100160000201B09103018D379105A105B10598F306
:1001700085E290E0FC01208185E290E02095FC0181
:10018000208310920001109201011092020110923E
:080190000301E1CFF894FFCF59
:00000001FF
