:100000000C9434000C9449000C9449000C94490061
:100010000C9449000C9449000C9449000C9449003C
:100020000C9449000C9449000C9449000C9449002C
:100030000C9449000C9449000C944B000C9449001A
:100040000C9449000C9449000C9449000C9449000C
:100050000C9449000C9449000C9449000C944900FC
:100060000C9449000C94490011241FBECFEFD8E036
:10007000DEBFCDBF11E0A0E0B1E0E2EFF1E002C0F1
:1000800005900D92A430B107D9F70E949F000C94FF
:10009000F7000C9400001F920F920FB60F921124DC
:1000A0002F933F938F939F93AF93BF93EF93FF93C0
:1000B000CF93DF93CDB7DEB780910001909101011E
:1000C000A0910201B09103010196A11DB11D809381
:1000D000000190930101A0930201B093030180916C
:1000E000000190910101A0910201B09103018536B8
:1000F0009105A105B10560F081E090E0A0E0B0E0DD
:100100008093000190930101A0930201B093030139
:1001100088E890E02AE030E0FC0131832083000091
:10012000DF91CF91FF91EF91BF91AF919F918F910F
:100130003F912F910F900FBE0F901F901895CF9366
:10014000DF93CDB7DEB784E290E0FC01208184E24A
:1001500090E02260FC0120838EE690E0FC0120818B
:100160008EE690E02260FC01208384E490E0FC01B4
:10017000208184E490E02360FC01208385E490E00A
:10018000FC01208185E490E02860FC01208387E465
:1001900090E02AE6FC0120838FE590E0FC012081BD
:1001A0008FE590E02068FC01208385E490E0FC016D
:1001B000208185E490E02560FC01208386E890E0C2
:1001C00024E234EFFC013183208388E890E02AE6C2
:1001D00038E1FC013183208380E890E022E8FC01D3
:1001E000208381E890E02CE1FC012083FFCFF8948C
:0201F000FFCF3F
:0401F2000100000008
:00000001FF
