:100000000C9434000C9449000C9449000C94490061
:100010000C9449000C9449000C9449000C9449003C
:100020000C9449000C9449000C9449000C9449002C
:100030000C9449000C9449000C944B000C9449001A
:100040000C9449000C9449000C9449000C9449000C
:100050000C9449000C9449000C9449000C944900FC
:100060000C9449000C94490011241FBECFEFD8E036
:10007000DEBFCDBF11E0A0E0B1E0E4E2F2E002C0FB
:1000800005900D92A430B107D9F70E94B8000C94E6
:1000900010010C9400001F920F920FB60F921124C2
:1000A0002F933F934F935F936F937F938F939F9380
:1000B000AF93BF93EF93FF93CF93DF93CDB7DEB7AB
:1000C0008091000190910101A0910201B091030182
:1000D0000196A11DB11D8093000190930101A09391
:1000E0000201B09303018091000190910101A09160
:1000F0000201B09103018F3F9105A105B10569F09F
:1001000060F081E090E0A0E0B0E080930001909387
:100110000101A0930201B09303018091000190912D
:100120000101A0910201B0910301BC0188E890E0B7
:1001300040E054E2649F9001659F300D749F300D44
:100140001124FC01318320830000DF91CF91FF91C6
:10015000EF91BF91AF919F918F917F916F915F913F
:100160004F913F912F910F900FBE0F901F901895B8
:10017000CF93DF93CDB7DEB784E290E0FC0120811E
:1001800084E290E02260FC0120838EE690E0FC0196
:1001900020818EE690E02260FC01208384E490E0E0
:1001A000FC01208184E490E02360FC01208385E44D
:1001B00090E0FC01208185E490E02860FC01208330
:1001C00087E490E02AE6FC0120838FE590E0FC01C3
:1001D00020818FE590E02068FC01208385E490E099
:1001E000FC01208185E490E02560FC01208386E805
:1001F00090E024E234EFFC013183208388E890E032
:100200002AE638E1FC013183208380E890E022E88F
:10021000FC01208381E890E02CE1FC012083FFCFEA
:04022000F894FFCF80
:0402240001000000D5
:00000001FF
