:100000000C9434000C9449000C9449000C94490061
:100010000C9449000C9449000C9449000C9449003C
:100020000C9449000C9449000C9449000C9449002C
:100030000C9449000C9449000C944B000C9449001A
:100040000C9449000C9449000C9449000C9449000C
:100050000C9449000C9449000C9449000C944900FC
:100060000C9449000C94490011241FBECFEFD8E036
:10007000DEBFCDBF11E0A0E0B1E0E0ECF5E002C0F2
:1000800005900D92A630B107D9F70E94EA000C94B2
:10009000DE020C9400001F920F9200905F000F92FE
:1000A00011240F931F932F933F934F935F936F935D
:1000B0007F938F939F93AF93BF93EF93FF93CF93D0
:1000C000DF93CDB7DEB780910001909101019C01D3
:1000D000990F440B550B8091020190910301A0915F
:1000E0000401B0910501820F931FA41FB51F8093D7
:1000F000020190930301A0930401B0930501809144
:10010000020190910301A0910401B09105018F3F7C
:100110009105A105B10541F038F08FEF9FEF909365
:1001200001018093000112C08091020190910301AE
:10013000A0910401B0910501892B8A2B8B2B31F4FE
:1001400081E090E0909301018093000108E810E0C5
:100150008091020190910301A0910401B0910501E9
:10016000BC01CD010E94E301DC01CB0120E030E0C5
:100170004FE753E4BC01CD010E944201DC01CB01F9
:1001800020E034E244E757E4BC01CD010E94710253
:10019000DC01CB01BC01CD010E94B401DC01CB012B
:1001A000F801918380830000DF91CF91FF91EF915F
:1001B000BF91AF919F918F917F916F915F914F917F
:1001C0003F912F911F910F910F9000925F000F9020
:1001D0001F901895CF93DF93CDB7DEB784E290E000
:1001E00024E230E0F90120812260FC0120838EE6C8
:1001F00090E02EE630E0F90120812260FC012083AE
:1002000084E490E024E430E0F90120812360FC01E3
:10021000208385E490E025E430E0F9012081286026
:10022000FC01208387E490E025E3FC0120838FE537
:1002300090E02FE530E0F90120812068FC01208367
:1002400085E490E025E430E0F90120812560FC019F
:10025000208386E890E023E234EFFC0131832083A1
:1002600088E890E029E638E1FC013183208380E8CA
:1002700090E022E8FC01208381E890E029E1FC0184
:100280002083FFCF0E9456010C9437020E94300257
:1002900058F00E94290240F029F45F3F29F00C94A5
:1002A000200251110C946B020C9426020E94480209
:1002B00068F39923B1F3552391F3951B550BBB2795
:1002C000AA2762177307840738F09F5F5F4F220FDA
:1002D000331F441FAA1FA9F335D00E2E3AF0E0E8D1
:1002E00032D091505040E695001CCAF72BD0FE2F1B
:1002F00029D0660F771F881FBB1F261737074807AF
:10030000AB07B0E809F0BB0B802DBF01FF27935866
:100310005F4F3AF09E3F510578F00C9420020C9408
:100320006B025F3FE4F3983ED4F38695779567952B
:10033000B795F7959F5FC9F7880F911D969587959B
:1003400097F90895E1E0660F771F881FBB1F6217BA
:1003500073078407BA0720F0621B730B840BBA0B78
:10036000EE1F88F7E09508950E94500288F09F578D
:1003700098F0B92F9927B751B0F0E1F0660F771FC9
:10038000881F991F1AF0BA95C9F714C0B13091F0BF
:100390000E946A02B1E008950C946A02672F782FD8
:1003A0008827B85F39F0B93FCCF386957795679584
:1003B000B395D9F73EF490958095709561957F4FF0
:1003C0008F4F9F4F0895E89409C097FB3EF4909596
:1003D0008095709561957F4F8F4F9F4F9923A9F01E
:1003E000F92F96E9BB279395F695879577956795AD
:1003F000B795F111F8CFFAF4BB0F11F460FF1BC0F1
:100400006F5F7F4F8F4F9F4F16C0882311F096E983
:1004100011C0772321F09EE8872F762F05C0662331
:1004200071F096E8862F70E060E02AF09A95660FEA
:10043000771F881FDAF7880F9695879597F90895A3
:1004400097F99F6780E870E060E008959FEF80EC87
:10045000089500240A94161617061806090608952A
:1004600000240A9412161306140605060895092E90
:100470000394000C11F4882352F0BB0F40F4BF2BFF
:1004800011F460FF04C06F5F7F4F8F4F9F4F08953F
:1004900057FD9058440F551F59F05F3F71F0479535
:1004A000880F97FB991F61F09F3F79F0879508951A
:1004B000121613061406551FF2CF4695F1DF08C039
:1004C000161617061806991FF1CF86957105610556
:1004D00008940895E894BB2766277727CB0197F9FE
:1004E00008950E9484020C9437020E94290238F079
:1004F0000E94300220F0952311F00C9420020C94FD
:10050000260211240C946B020E94480270F3959FFE
:10051000C1F3950F50E0551F629FF001729FBB27FA
:10052000F00DB11D639FAA27F00DB11DAA1F649F96
:100530006627B00DA11D661F829F2227B00DA11D49
:10054000621F739FB00DA11D621F839FA00D611DCF
:10055000221F749F3327A00D611D231F849F600DF0
:10056000211D822F762F6A2F11249F5750409AF019
:10057000F1F088234AF0EE0FFF1FBB1F661F771FA5
:10058000881F91505040A9F79E3F510580F00C9470
:1005900020020C946B025F3FE4F3983ED4F38695FF
:1005A00077956795B795F795E7959F5FC1F7FE2B10
:1005B000880F911D9695879597F90895F894FFCF28
:0605C00001000100000033
:00000001FF
